:03000000020016E5
:0C001600787FE4F6D8FD75810B02005DD8
:08000600020A000002080000DC
:0F0159007580FE1201687580FD1201687580FBCC
:0E01680000007F197E5A7DB0DDFEDEFCDFFA5E
:010176002266
:0E01770000007F7A7EC17D80DDFEDEFCDFFAB7
:010185002257
:1000A200E4F5937594FFD2AFD288D2A8D28AD2AAAD
:1000B200E50B450A702EE50945087003120159E562
:1000C200096401450870127580FE1201777580FD82
:1000D2001201777580FB120177E509640245087009
:1000E20003120159E50B6401450A70C4E50945088C
:1000F20070037580FEE5096401450870037580FD93
:0D010200E5096402450870A87580FB80A324
:0300030002010FE8
:10010F00C0E0C0D00509E50970020508D39402E5E7
:10011F000864809480400675080075090030B2FDB0
:05012F00D0D0D0E03249
:03001300020134B3
:10013400C0E0C0D0050BE50B7002050AD39402E5BC
:100144000A648094804006750A00750B0030B3FD84
:05015400D0D0D0E03224
:100022000200A2E493A3F8E493A34003F68001F252
:1000320008DFF48029E493A3F85407240CC8C333DF
:10004200C4540F4420C8834004F456800146F6DFAE
:10005200E4800B0102040810204080900006E47E38
:10006200019360BCA3FF543F30E509541FFEE493A3
:10007200A360010ECF54C025E060A840B8E493A36A
:10008200FAE493A3F8E493A3C8C582C8CAC583CA95
:10009200F0A3C8C582C8CAC583CADFE9DEE780BE4D
:01000E0000F1
:00000001FF
